{
    "contractName": "IndexManager",
    "abi": [
        {
            "inputs": [
                {
                    "internalType": "address",
                    "name": "_tokenIndex",
                    "type": "address"
                },
                {
                    "internalType": "address",
                    "name": "_priceOracle",
                    "type": "address"
                },
                {
                    "internalType": "address",
                    "name": "_swapRouter",
                    "type": "address"
                },
                {
                    "internalType": "address",
                    "name": "_baseToken",
                    "type": "address"
                },
                {
                    "internalType": "uint256",
                    "name": "_feePercentage",
                    "type": "uint256"
                },
                {
                    "internalType": "address",
                    "name": "_aclManager",
                    "type": "address"
                }
            ],
            "stateMutability": "nonpayable",
            "type": "constructor"
        },
        {
            "inputs": [],
            "name": "FeeWithdrawalTooSoon",
            "type": "error"
        },
        {
            "inputs": [],
            "name": "InsufficientBalance",
            "type": "error"
        },
        {
            "inputs": [],
            "name": "OnlyIndexAdmins",
            "type": "error"
        },
        {
            "inputs": [],
            "name": "PathNotSet",
            "type": "error"
        },
        {
            "inputs": [
                {
                    "internalType": "address",
                    "name": "spender",
                    "type": "address"
                },
                {
                    "internalType": "uint256",
                    "name": "currentAllowance",
                    "type": "uint256"
                },
                {
                    "internalType": "uint256",
                    "name": "requestedDecrease",
                    "type": "uint256"
                }
            ],
            "name": "SafeERC20FailedDecreaseAllowance",
            "type": "error"
        },
        {
            "inputs": [
                {
                    "internalType": "address",
                    "name": "token",
                    "type": "address"
                }
            ],
            "name": "SafeERC20FailedOperation",
            "type": "error"
        },
        {
            "anonymous": false,
            "inputs": [
                {
                    "indexed": true,
                    "internalType": "address",
                    "name": "user",
                    "type": "address"
                },
                {
                    "indexed": false,
                    "internalType": "uint256",
                    "name": "amount",
                    "type": "uint256"
                },
                {
                    "indexed": true,
                    "internalType": "address",
                    "name": "to",
                    "type": "address"
                }
            ],
            "name": "Deposit",
            "type": "event"
        },
        {
            "anonymous": false,
            "inputs": [
                {
                    "indexed": true,
                    "internalType": "address",
                    "name": "recipient",
                    "type": "address"
                },
                {
                    "indexed": false,
                    "internalType": "uint256",
                    "name": "periodsElapsed",
                    "type": "uint256"
                }
            ],
            "name": "FeeWithdrawn",
            "type": "event"
        },
        {
            "anonymous": false,
            "inputs": [
                {
                    "components": [
                        {
                            "internalType": "uint256",
                            "name": "amountIn",
                            "type": "uint256"
                        },
                        {
                            "internalType": "uint256",
                            "name": "amountOutMinimum",
                            "type": "uint256"
                        },
                        {
                            "internalType": "bytes",
                            "name": "path",
                            "type": "bytes"
                        },
                        {
                            "internalType": "uint256",
                            "name": "deadline",
                            "type": "uint256"
                        }
                    ],
                    "indexed": false,
                    "internalType": "struct IIndexManager.SwapParams[]",
                    "name": "swapParams",
                    "type": "tuple[]"
                }
            ],
            "name": "Rebalanced",
            "type": "event"
        },
        {
            "anonymous": false,
            "inputs": [
                {
                    "indexed": true,
                    "internalType": "address",
                    "name": "tokenIn",
                    "type": "address"
                },
                {
                    "indexed": true,
                    "internalType": "address",
                    "name": "tokenOut",
                    "type": "address"
                },
                {
                    "indexed": false,
                    "internalType": "bytes",
                    "name": "path",
                    "type": "bytes"
                }
            ],
            "name": "TokenPathSet",
            "type": "event"
        },
        {
            "anonymous": false,
            "inputs": [
                {
                    "indexed": true,
                    "internalType": "address",
                    "name": "tokenIn",
                    "type": "address"
                },
                {
                    "indexed": true,
                    "internalType": "address",
                    "name": "tokenOut",
                    "type": "address"
                },
                {
                    "indexed": false,
                    "internalType": "uint256",
                    "name": "amountIn",
                    "type": "uint256"
                },
                {
                    "indexed": false,
                    "internalType": "uint256",
                    "name": "amountOut",
                    "type": "uint256"
                }
            ],
            "name": "TokenSwapped",
            "type": "event"
        },
        {
            "anonymous": false,
            "inputs": [
                {
                    "indexed": true,
                    "internalType": "address",
                    "name": "user",
                    "type": "address"
                },
                {
                    "indexed": false,
                    "internalType": "uint256",
                    "name": "indexTokenAmount",
                    "type": "uint256"
                },
                {
                    "indexed": true,
                    "internalType": "address",
                    "name": "to",
                    "type": "address"
                }
            ],
            "name": "Withdraw",
            "type": "event"
        },
        {
            "inputs": [],
            "name": "FEE_DENOMINATOR",
            "outputs": [
                {
                    "internalType": "uint256",
                    "name": "",
                    "type": "uint256"
                }
            ],
            "stateMutability": "view",
            "type": "function"
        },
        {
            "inputs": [],
            "name": "FEE_PERIOD",
            "outputs": [
                {
                    "internalType": "uint256",
                    "name": "",
                    "type": "uint256"
                }
            ],
            "stateMutability": "view",
            "type": "function"
        },
        {
            "inputs": [],
            "name": "INDEX_ADMIN_ROLE",
            "outputs": [
                {
                    "internalType": "bytes32",
                    "name": "",
                    "type": "bytes32"
                }
            ],
            "stateMutability": "view",
            "type": "function"
        },
        {
            "inputs": [],
            "name": "PRICE_ORACLE_DECIMALS",
            "outputs": [
                {
                    "internalType": "uint256",
                    "name": "",
                    "type": "uint256"
                }
            ],
            "stateMutability": "view",
            "type": "function"
        },
        {
            "inputs": [],
            "name": "TOKEN_INDEX_DECIMALS",
            "outputs": [
                {
                    "internalType": "uint256",
                    "name": "",
                    "type": "uint256"
                }
            ],
            "stateMutability": "view",
            "type": "function"
        },
        {
            "inputs": [],
            "name": "aclManager",
            "outputs": [
                {
                    "internalType": "contract IACLManager",
                    "name": "",
                    "type": "address"
                }
            ],
            "stateMutability": "view",
            "type": "function"
        },
        {
            "inputs": [
                {
                    "internalType": "address",
                    "name": "token",
                    "type": "address"
                },
                {
                    "internalType": "address",
                    "name": "manager",
                    "type": "address"
                }
            ],
            "name": "approveToken",
            "outputs": [],
            "stateMutability": "nonpayable",
            "type": "function"
        },
        {
            "inputs": [],
            "name": "baseToken",
            "outputs": [
                {
                    "internalType": "contract IERC20Metadata",
                    "name": "",
                    "type": "address"
                }
            ],
            "stateMutability": "view",
            "type": "function"
        },
        {
            "inputs": [
                {
                    "internalType": "uint256",
                    "name": "amount",
                    "type": "uint256"
                },
                {
                    "internalType": "address",
                    "name": "to",
                    "type": "address"
                }
            ],
            "name": "deposit",
            "outputs": [],
            "stateMutability": "nonpayable",
            "type": "function"
        },
        {
            "inputs": [],
            "name": "feePercentage",
            "outputs": [
                {
                    "internalType": "uint256",
                    "name": "",
                    "type": "uint256"
                }
            ],
            "stateMutability": "view",
            "type": "function"
        },
        {
            "inputs": [],
            "name": "lastFeeWithdrawal",
            "outputs": [
                {
                    "internalType": "uint256",
                    "name": "",
                    "type": "uint256"
                }
            ],
            "stateMutability": "view",
            "type": "function"
        },
        {
            "inputs": [],
            "name": "priceOracle",
            "outputs": [
                {
                    "internalType": "contract IPriceOracleGetter",
                    "name": "",
                    "type": "address"
                }
            ],
            "stateMutability": "view",
            "type": "function"
        },
        {
            "inputs": [
                {
                    "components": [
                        {
                            "internalType": "uint256",
                            "name": "amountIn",
                            "type": "uint256"
                        },
                        {
                            "internalType": "uint256",
                            "name": "amountOutMinimum",
                            "type": "uint256"
                        },
                        {
                            "internalType": "bytes",
                            "name": "path",
                            "type": "bytes"
                        },
                        {
                            "internalType": "uint256",
                            "name": "deadline",
                            "type": "uint256"
                        }
                    ],
                    "internalType": "struct IIndexManager.SwapParams[]",
                    "name": "swapParams",
                    "type": "tuple[]"
                }
            ],
            "name": "rebalance",
            "outputs": [],
            "stateMutability": "nonpayable",
            "type": "function"
        },
        {
            "inputs": [
                {
                    "internalType": "address",
                    "name": "token",
                    "type": "address"
                },
                {
                    "internalType": "address",
                    "name": "manager",
                    "type": "address"
                }
            ],
            "name": "revokeTokenApproval",
            "outputs": [],
            "stateMutability": "nonpayable",
            "type": "function"
        },
        {
            "inputs": [
                {
                    "internalType": "address",
                    "name": "tokenIn",
                    "type": "address"
                },
                {
                    "internalType": "address",
                    "name": "tokenOut",
                    "type": "address"
                },
                {
                    "internalType": "bytes",
                    "name": "path",
                    "type": "bytes"
                }
            ],
            "name": "setTokenPath",
            "outputs": [],
            "stateMutability": "nonpayable",
            "type": "function"
        },
        {
            "inputs": [],
            "name": "swapRouter",
            "outputs": [
                {
                    "internalType": "contract ISwapRouter",
                    "name": "",
                    "type": "address"
                }
            ],
            "stateMutability": "view",
            "type": "function"
        },
        {
            "inputs": [],
            "name": "tokenIndex",
            "outputs": [
                {
                    "internalType": "contract ITokenIndex",
                    "name": "",
                    "type": "address"
                }
            ],
            "stateMutability": "view",
            "type": "function"
        },
        {
            "inputs": [
                {
                    "internalType": "address",
                    "name": "",
                    "type": "address"
                },
                {
                    "internalType": "address",
                    "name": "",
                    "type": "address"
                }
            ],
            "name": "tokenPaths",
            "outputs": [
                {
                    "internalType": "bytes",
                    "name": "",
                    "type": "bytes"
                }
            ],
            "stateMutability": "view",
            "type": "function"
        },
        {
            "inputs": [
                {
                    "internalType": "uint256",
                    "name": "indexTokenAmount",
                    "type": "uint256"
                },
                {
                    "internalType": "address",
                    "name": "to",
                    "type": "address"
                }
            ],
            "name": "withdraw",
            "outputs": [],
            "stateMutability": "nonpayable",
            "type": "function"
        },
        {
            "inputs": [],
            "name": "withdrawFees",
            "outputs": [],
            "stateMutability": "nonpayable",
            "type": "function"
        }
    ],
    "bytecode": "60c080604052346101a95760c08161313c803803809161001f82856101f3565b8339810103126101a9576100328161022a565b61003e6020830161022a565b9161004b6040820161022a565b6100576060830161022a565b9061006960a06080850151940161022a565b5f80546001600160a01b03199081166001600160a01b03978816908117909255600180548216988816989098179097556002805488169387169390931790925560038054871693861693909317909255600692909255426005556004805490941692169190911782556040516329a0356b60e01b81529091602090829081855afa9081156101b5575f916101c0575b5060805260405163313ce56760e01b815290602090829060049082905afa80156101b5575f90610174575b60ff1660a052604051612efd908161023f8239608051818181610189015281816104a70152818161065b01528181610e370152610f20015260a051818181610beb0152818161144a01526121500152f35b506020813d6020116101ad575b8161018e602093836101f3565b810103126101a9575160ff811681036101a95760ff90610123565b5f80fd5b3d9150610181565b6040513d5f823e3d90fd5b90506020813d6020116101eb575b816101db602093836101f3565b810103126101a9575160046100f8565b3d91506101ce565b601f909101601f19168101906001600160401b0382119082101761021657604052565b634e487b7160e01b5f52604160045260245ffd5b51906001600160a01b03821682036101a95756fe60806040526004361015610011575f80fd5b5f5f3560e01c8062f714ce1461103057806303105b0414610eec578063046d81db14610e825780632630c12f14610e5a57806329a0356b14610e2057806340298ed714610df8578063476343ee14610c2b5780634b79bc0614610c0e57806359c4a58714610bd45780636e553f65146109855780638414efe5146109675780638dbc2892146105f057806391879a5114610471578063a001ecdd14610453578063c31c9c071461042a578063c55dae6314610401578063d55f9273146103da578063d73792a9146103bd578063e47730fe146101165763e4d1d2eb146100f5575f80fd5b3461011357806003193601126101135760206040516305f5e1008152f35b80fd5b50346101135760603660031901126101135761013061106a565b90610139611054565b916044356001600160401b0381116103b957366023820112156103b9578060040135916001600160401b0383116103b55736602484840101116103b55760048054604051632474521560e21b81527f000000000000000000000000000000000000000000000000000000000000000092810192909252336024830152602090829060449082906001600160a01b03165afa9081156103aa57859161037b575b501561036c5760018060a01b03169081845260076020526040842060018060a01b0386165f5260205260405f20946102108654611080565b601f8111610327575b508495601f851160011461029e578486977f86ca199830a30a49e31aca8141b9f67ffdd4b3e0649922c753809bf962b9d00e95969791610290575b508660011b905f198860031b1c19161790555b61028a6040519283926020845260018060a01b0316966024602085019201611830565b0390a380f35b60249150840101355f610254565b80865260208620601f19861697875b89811061030c5750867f86ca199830a30a49e31aca8141b9f67ffdd4b3e0649922c753809bf962b9d00e96979899106102f0575b5050600186811b019055610267565b8401602401355f19600389901b60f8161c191690555f806102e1565b90916020600181926024868a010135815501930191016102ad565b86865260208620601f860160051c81019160208710610362575b601f0160051c01905b8181106103575750610219565b86815560010161034a565b9091508190610341565b63419a50ed60e11b8452600484fd5b61039d915060203d6020116103a3575b6103958183611102565b810190611729565b5f6101d8565b503d61038b565b6040513d87823e3d90fd5b8380fd5b8280fd5b503461011357806003193601126101135760206040516127108152f35b5034610113578060031936011261011357546040516001600160a01b039091168152602090f35b50346101135780600319360112610113576003546040516001600160a01b039091168152602090f35b50346101135780600319360112610113576002546040516001600160a01b039091168152602090f35b50346101135780600319360112610113576020600654604051908152f35b50346101135760403660031901126101135761048b61106a565b90610494611054565b60048054604051632474521560e21b81527f000000000000000000000000000000000000000000000000000000000000000092810192909252336024830152919391602090829060449082906001600160a01b03165afa9081156105b75783916105d1575b50156105c257604051636eb1769f60e11b81523060048201526001600160a01b0384811660248301529093911690602084604481855afa9384156105b757839461057f575b505f19841061055857600161055593940191612add565b80f35b63e570110f60e01b83526001600160a01b0316600452506024919091525f19604452606490fd5b9093506020813d6020116105af575b8161059b60209383611102565b810103126105ab5751925f61053e565b5f80fd5b3d915061058e565b6040513d85823e3d90fd5b63419a50ed60e11b8252600482fd5b6105ea915060203d6020116103a3576103958183611102565b5f6104f9565b503461011357602036600319011261011357600435906001600160401b0382116101135736602383011215610113578160040135916001600160401b0383116109635760248101928060051b36602482850101116103b55760048054604051632474521560e21b81527f000000000000000000000000000000000000000000000000000000000000000092810192909252336024830152602090829060449082906001600160a01b03165afa9081156103aa578591610944575b501561036c576106b98261122f565b84546001600160a01b0316908590815b8581106108225750604051631592ca1b60e31b81529283918290849082906106f490600483016113e6565b03925af180156103aa57610802575b509060405192816020850160208652526040808501938501019592859160a219813603015b84841061075957877f0dd7d23ef69219b6897759ac83d24025c825da304ec454012abbda6d8a0a37d9888b0389a180f35b909192939497603f198782030184528835828112156107fe578301602481013582526044810135602083015290606482013536839003604219018112156107fa57826024910101602081359101906001600160401b0381116107f65780360382136107f6579282606060846107e060209695600198608060408a9901526080860191611830565b9301359101529a01940194019294939190610728565b8a80fd5b8980fd5b8880fd5b61081d903d8087833e6108158183611102565b810190611312565b610703565b90915061083081868a61180e565b604081013590601e19813603018212156107fe570180356001600160401b0381116107fe57602082019181360383136107fa578a906060610872868b8561180e565b013590602061088e878c61088782828961180e565b359661180e565b0135936040519561089e876110b8565b6108a7826112f7565b926108b56040519485611102565b82845260208336920101116109405792828e602084610921989560019c9b98836109139c99013783010152845289602085015260408401526060830152608082015260405192839163c04b8d5960e01b6020840152602483016112ad565b03601f198101835282611102565b61092b8285611278565b526109368184611278565b50019086916106c9565b8d80fd5b61095d915060203d6020116103a3576103958183611102565b5f6106aa565b5080fd5b50346101135780600319360112610113576020600554604051908152f35b50346105ab5760403660031901126105ab576004356109a2611054565b6003546040516323b872dd60e01b6020820152336024820152306044820152606480820185905281529193916109eb916001600160a01b03166109e6608483611102565b612ba2565b60015460035460405163b3596f0760e01b81526001600160a01b0391821660048201529160209183916024918391165afa8015610b81575f90610ba0575b610a349150836111e7565b62278d00610a4f610a4760055442611741565b6006546111e7565b0461271003906127108211610b8c5761271091610a6b916111e7565b0491610a7681611fd0565b935f5b8551811015610ad857600190610ad26001600160a01b03610a9a838a611278565b515116838060a01b036020610aaf858c611278565b510151166040610abf858c611278565b51015190858060a01b035f5416926126aa565b01610a79565b50610ae284612809565b5f546001600160a01b0316803b156105ab576040516340c10f1960e01b81526001600160a01b038416600482015260248101929092525f908290604490829084905af18015610b8157610b6c575b506040519182526001600160a01b03169033907fe31c7b8d08ee7db0afa68782e1028ef92305caeea8626633ad44d413e30f6b2f90602090a380f35b610b799193505f90611102565b5f9183610b30565b6040513d5f823e3d90fd5b634e487b7160e01b5f52601160045260245ffd5b506020813d602011610bcc575b81610bba60209383611102565b810103126105ab57610a349051610a29565b3d9150610bad565b346105ab575f3660031901126105ab5760206040517f00000000000000000000000000000000000000000000000000000000000000008152f35b346105ab575f3660031901126105ab57602060405162278d008152f35b346105ab575f3660031901126105ab5760055462278d00610c4c8242611741565b04908115610de95762278d00820282810462278d0003610b8c57610c6f916112a0565b6005555f805460405163d30045b160e01b81529190829060049082906001600160a01b03165afa908115610b81575f91610dc7575b505f5b8151811015610d98576001600160a01b03610cc28284611278565b51515f546040516370a0823160e01b81526001600160a01b039091166004820152929116602083602481845afa8015610b815785935f91610d60575b50610d5a916109e6612710610d24600197610d1f610d4c96600654906111e7565b6111e7565b60405163a9059cbb60e01b602082015233602482015291900460448201529283906064820190565b03601f198101845283611102565b01610ca7565b9350506020833d8211610d90575b81610d7b60209383611102565b810103126105ab579151849290610d5a610cfe565b3d9150610d6e565b826040519081527f78473f3f373f7673597f4f0fa5873cb4d375fea6d4339ad6b56dbd411513cb3f60203392a2005b610de391503d805f833e610ddb8183611102565b81019061174e565b82610ca4565b63291b13a760e11b5f5260045ffd5b346105ab575f3660031901126105ab576004546040516001600160a01b039091168152602090f35b346105ab575f3660031901126105ab5760206040517f00000000000000000000000000000000000000000000000000000000000000008152f35b346105ab575f3660031901126105ab576001546040516001600160a01b039091168152602090f35b346105ab5760403660031901126105ab57610e9b61106a565b610ea3611054565b9060018060a01b03165f52600760205260405f209060018060a01b03165f52602052610ee8610ed460405f20611123565b6040519182916020835260208301906111c3565b0390f35b346105ab5760403660031901126105ab57610f0561106a565b610f0d611054565b60048054604051632474521560e21b81527f000000000000000000000000000000000000000000000000000000000000000092810192909252336024830152919291602090829060449082906001600160a01b03165afa908115610b81575f91611011575b501561100257604051636eb1769f60e11b81523060048201526001600160a01b0383811660248301529190911691602082604481865afa918215610b81575f92610fce575b505f198201809211610b8c57610fcc92612add565b005b9091506020813d602011610ffa575b81610fea60209383611102565b810103126105ab57519083610fb7565b3d9150610fdd565b63419a50ed60e11b5f5260045ffd5b61102a915060203d6020116103a3576103958183611102565b83610f72565b346105ab5760403660031901126105ab57610fcc61104c611054565b600435611445565b602435906001600160a01b03821682036105ab57565b600435906001600160a01b03821682036105ab57565b90600182811c921680156110ae575b602083101461109a57565b634e487b7160e01b5f52602260045260245ffd5b91607f169161108f565b60a081019081106001600160401b038211176110d357604052565b634e487b7160e01b5f52604160045260245ffd5b606081019081106001600160401b038211176110d357604052565b90601f801991011681019081106001600160401b038211176110d357604052565b9060405191825f82549261113684611080565b80845293600181169081156111a1575060011461115d575b5061115b92500383611102565b565b90505f9291925260205f20905f915b81831061118557505090602061115b928201015f61114e565b602091935080600191548385890101520191019091849261116c565b90506020925061115b94915060ff191682840152151560051b8201015f61114e565b805180835260209291819084018484015e5f828201840152601f01601f1916010190565b81810292918115918404141715610b8c57565b8115611204570490565b634e487b7160e01b5f52601260045260245ffd5b6001600160401b0381116110d35760051b60200190565b9061123982611218565b6112466040519182611102565b8281528092611257601f1991611218565b01905f5b82811061126757505050565b80606060208093850101520161125b565b805182101561128c5760209160051b010190565b634e487b7160e01b5f52603260045260245ffd5b91908201809211610b8c57565b6020815260a060806112ca845183602086015260c08501906111c3565b93600180841b03602082015116604085015260408101516060850152606081015182850152015191015290565b6001600160401b0381116110d357601f01601f191660200190565b6020818303126105ab578051906001600160401b0382116105ab57019080601f830112156105ab5781519161134683611218565b926113546040519485611102565b80845260208085019160051b830101918383116105ab5760208101915b83831061138057505050505090565b82516001600160401b0381116105ab57820185603f820112156105ab576020810151916113ac836112f7565b6113b96040519182611102565b83815260408385010188106105ab575f602085819660408397018386015e83010152815201920191611371565b602081016020825282518091526040820191602060408360051b8301019401925f915b83831061141857505050505090565b9091929394602080611436600193603f1986820301875289516111c3565b97019301930191939290611409565b61146f7f0000000000000000000000000000000000000000000000000000000000000000826111e7565b5f80546040516318160ddd60e01b81529195926001600160a01b039091169190602082600481865afa908115610b81575f916116f3575b6114b092506111fa565b90803b156105ab57604051632770a7eb60e21b815233600482015260248101859052905f908290604490829084905af18015610b81576116dc575b506114f8909392936118bf565b91611503835161122f565b9285906001420191824211905b8251811015611639576001600160a01b0361152b8285611278565b51511689526007602090815260408a20906001600160a01b039061154f8487611278565b5101511660018060a01b03165f5260205261156c60405f20611123565b60406115788386611278565b5101511561162d5780511561161e578261160a57906109136115ee60019360406115a28589611278565b510151604051916115b2836110b8565b8252858060a01b038a16602083015288604083015260608201528c608082015260405192839163c04b8d5960e01b6020840152602483016112ad565b6115f8828a611278565b526116038189611278565b5001611510565b634e487b7160e01b8a52601160045260248afd5b63d8af0d2160e01b8a5260048afd5b50505050505092505050565b5050505091938061166d81939660018060a01b0383541690604051948580948193631592ca1b60e31b8352600483016113e6565b03925af180156116d1576116b8575b50506040519182526001600160a01b03169033907f56c54ba9bd38d8fd62012e42c7ee564519b09763c426d331b3661b537ead19b290602090a3565b6116cb913d8091833e6108158183611102565b5f61167c565b6040513d84823e3d90fd5b6116e99195505f90611102565b5f936114f86114eb565b90506020823d602011611721575b8161170e60209383611102565b810103126105ab576114b09151906114a6565b3d9150611701565b908160209103126105ab575180151581036105ab5790565b91908203918211610b8c57565b6020818303126105ab578051906001600160401b0382116105ab570181601f820112156105ab5780519061178182611218565b9261178f6040519485611102565b82845260208085019360061b830101918183116105ab57602001925b8284106117b9575050505090565b6040848303126105ab5760405190604082018281106001600160401b038211176110d3576040528451906001600160a01b03821682036105ab57826020926040945282870151838201528152019301926117ab565b919081101561128c5760051b81013590607e19813603018212156105ab570190565b908060209392818452848401375f828201840152601f01601f1916010190565b9061185a82611218565b6118676040519182611102565b8281528092611878601f1991611218565b01905f5b82811061188857505050565b602090604051611897816110e7565b5f81525f838201525f60408201528282850101520161187c565b5f198114610b8c5760010190565b5f805460405163d30045b160e01b81529190829060049082906001600160a01b03165afa908115610b81575f91611fa6575b506118fb81612c08565b5f935f935f5b8351811015611946576119148185611278565b5160206119218388611278565b51015110611932575b600101611901565b9561193e6001916118b1565b96905061192a565b509293909361195d61195787612a93565b96612a93565b925f945f5b82518110156119d85761198e6119788285611278565b5160206119858488611278565b51015190612ac5565b895f82136119a1575b5050600101611962565b6119d0918997846119b86001969c6119ca95611278565b52816119c48a8c611278565b526112a0565b956118b1565b969089611997565b5060015460035460405163b3596f0760e01b81526001600160a01b0391821660048201819052939a97999698509596911694919390925090602081602481885afa8015610b81575f90611f72575b611a319150896111e7565b8096105f14611c74575f9594611a478351611850565b945f965f985b85515f198101908111610b8c578a1015611c6457670de0b6b3a7640000611a7e83611a788d8f611278565b516111e7565b046001600160a01b03611a9b611a948d8a611278565b5188611278565b515160405163b3596f0760e01b81529116600482015290602082602481885afa908115610b81575f91611c2f575b611ad392506111fa565b908c611adf838c6112a0565b11611b5457600191611b45828a611b348f958e8d611b118e611b0a611b4b9b8d8060a01b0394611278565b5190611278565b5151169360405194611b22866110e7565b85526020850152866040850152611278565b52611b3f818d611278565b506118b1565b9a6112a0565b99019897611a4d565b9899505050509790929396505b81519283151580611c26575b611bbc575b50505050509050611b8281611850565b915f5b828110611b925750505090565b80611b9f60019284611278565b51611baa8287611278565b52611bb58186611278565b5001611b85565b5f198401938411610b8c57611b0a611bda611c1b98611be994611741565b946001600160a01b0394611278565b5151169160405192611bfa846110e7565b835260208301526040820152611c108285611278565b52611b3f8184611278565b805f80808080611b72565b50818710611b6d565b90506020823d8211611c5c575b81611c4960209383611102565b810103126105ab57611ad3915190611ac9565b3d9150611c3c565b9798505050979092939650611b61565b919094929650611c878296949651611850565b935f5b8651811015611dd0575f611c9e8284611278565b5113611cad575b600101611c8a565b670de0b6b3a7640000611cc486611a788486611278565b048960206001600160a01b03611ce4611cdd868d611278565b5189611278565b51511660246040518094819363b3596f0760e01b835260048301525afa8015610b81575f90611d9d575b611d199150826111fa565b81871015611d29575b5050611ca5565b9195600192611d95929190611d8f906001600160a01b03611d54611d4d8c8f611278565b518b611278565b5151169060405191611d65836110e7565b82528860208301526040820152611d7c8a8d611278565b5190611d88828d611278565b528a611278565b50611741565b94905f611d22565b506020813d8211611dc8575b81611db660209383611102565b810103126105ab57611d199051611d0e565b3d9150611da9565b50509293919586151580611f68575b611ded575b50929450505050565b5f965f5b84515f198101908111610b8c57811015611ef3576001600160a01b03611e21611e1a8388611278565b5186611278565b515160405163b3596f0760e01b81529116600482015290602082602481875afa918215610b81575f92611ebe575b50611e70611e69600193611e648951876111fa565b6111fa565b809b6112a0565b99828060a01b03611e84611a94848a611278565b5151169060405191611e95836110e7565b82528860208301526040820152611eac828a611278565b52611eb78189611278565b5001611df1565b91506020823d8211611eeb575b81611ed860209383611102565b810103126105ab57905190611e70611e4f565b3d9150611ecb565b50949596939290508051935f198501948511610b8c57611f19611f2e91611f5c97611741565b926001600160a01b0392611b0a908790611278565b5151169160405192611f3f846110e7565b835260208301526040820152611f558285611278565b5282611278565b5081905f808080611de4565b5082511515611ddf565b506020813d602011611f9e575b81611f8c60209383611102565b810103126105ab57611a319051611a26565b3d9150611f7f565b611fba91503d805f833e610ddb8183611102565b5f6118f1565b600160ff1b8114610b8c575f0390565b5f805460405163d30045b160e01b8152939190849060049082906001600160a01b03165afa928315610b81575f9361268e575b5061200d83612c08565b5f915f905f5b8351811015612058576120268185611278565b516020612033838a611278565b51015111612044575b600101612013565b936120506001916118b1565b94905061203c565b50939192909461207061206a83612a93565b92612a93565b935f935f5b82518110156120dd5761208b6119788285611278565b5f811261209c575b50600101612075565b6120d0879a6120ca836120d6946120c48c8e899e996120be8f9b60019c611278565b52611278565b52611fc0565b906112a0565b996118b1565b9590612093565b5060015460035460405163b3596f0760e01b81526001600160a01b0391821660048201819052939a9997509116949193919250602081602481885afa8015610b81575f9061265a575b6121319150896111e7565b8097105f1461234d575f969596946121498351611850565b945f965f987f0000000000000000000000000000000000000000000000000000000000000000915b86515f198101908111610b8c578b101561233c576121a283611e64848f8f61219c90610d1f92611278565b51611fc0565b6001600160a01b036121b7611cdd8e8b611278565b515160405163b3596f0760e01b81529116600482015290602082602481895afa908115610b81575f91612307575b6121ef92506111fa565b908d6121fb838d6112a0565b1161225c5760019161224d82611b3f8f948e8e8e6122268f611b0a6122539b8d8060a01b0394611278565b51511660405191612236836110e7565b825260208201528660408201526120be8383611278565b9b6112a0565b9a019998612171565b999a50505050509790929396505b815192831515806122fe575b6122c5575b5050505050905061228b81611850565b915f5b82811061229b5750505090565b806122a860019284611278565b516122b38287611278565b526122be8186611278565b500161228e565b5f198401938411610b8c57611b0a611bda6122f3986122e394611741565b51511660405192611bfa846110e7565b805f8080808061227b565b50818710612276565b90506020823d8211612334575b8161232160209383611102565b810103126105ab576121ef9151906121e5565b3d9150612314565b98995050505097909293965061226a565b919094939592965061235f8251611850565b935f5b8651811015612484575f6123768284611278565b5112612385575b600101612362565b670de0b6b3a764000061239f86610d1f61219c8587611278565b048960206001600160a01b036123b8611cdd868d611278565b51511660246040518094819363b3596f0760e01b835260048301525afa8015610b81575f90612451575b6123ed9150826111fa565b818710156123fd575b505061237d565b9195600192612449929190611d8f906001600160a01b03612421611d4d8c8f611278565b5151169060405191612432836110e7565b89835260208301526040820152611d7c8a8d611278565b94905f6123f6565b506020813d821161247c575b8161246a60209383611102565b810103126105ab576123ed90516123e2565b3d915061245d565b5050959092935081151580612650575b6124a1575b509193505050565b5f915f5b84515f198101908111610b8c578110156125fc576001600160a01b036124cb8287611278565b515160405163b3596f0760e01b81529116600482015290602082602481875afa918215610b81575f926125c7575b5061250b600192611e648851866111fa565b9461257f866040925f8085516125218782611102565b600d81526c616d6f756e74546f537761703360981b60208201528651612569816109136020820194630fa3f34560e01b86528960248401528b604484015260648301906111c3565b51906a636f6e736f6c652e6c6f675afa506112a0565b95838060a01b03612590848a611278565b515116918051926125a0846110e7565b8c845260208401528201526125b58289611278565b526125c08188611278565b50016124a5565b91506020823d82116125f4575b816125e160209383611102565b810103126105ab5790519061250b6124f9565b3d91506125d4565b5092905094909293948051925f198401938411610b8c576126459461262091611741565b906001600160a01b0390612635908590611278565b51511660405192611f3f846110e7565b5081905f8080612499565b5082511515612494565b506020813d602011612686575b8161267460209383611102565b810103126105ab576121319051612126565b3d9150612667565b6126a39193503d805f833e610ddb8183611102565b915f612003565b92919260018060a01b031691825f52600760205260405f2060018060a01b0383165f526020526126dc60405f20611123565b908415612802578151156127f3576001420190814211610b8c575f92602092612753926040519261270c846110b8565b835260018060a01b031684830152604082015286606082015283608082015260018060a01b03600254169060405194858094819363c04b8d5960e01b8352600483016112ad565b03925af1908115610b81575f916127a1575b507f30b60ee4dc75c0fb04420331b13e9ad7f8ff8fc51eac9c97d36fb20ccbe09d66916040918251958652602086015260018060a01b031693a3565b90506020813d6020116127eb575b816127bc60209383611102565b810103126105ab57517f30b60ee4dc75c0fb04420331b13e9ad7f8ff8fc51eac9c97d36fb20ccbe09d66612765565b3d91506127af565b63d8af0d2160e01b5f5260045ffd5b5050505050565b5f546040516318160ddd60e01b81526001600160a01b0390911690602081600481855afa908115610b81575f91612a61575b50612844575090565b60405163d30045b160e01b81529092915f918281600481885afa908115610b81575f91612a47575b5060015491935f936001600160a01b03909316925b825185101561298d576001600160a01b0361289c8685611278565b515160405163b3596f0760e01b81529116600482015290602082602481885afa8015610b81575f9061295b575b6024925060206001600160a01b036128e18988611278565b515116604051948580926370a0823160e01b82528d60048301525afa928315610b81575f93612924575b50906120ca60019361291c936111e7565b940193612881565b9250906020833d8211612953575b8161293f60209383611102565b810103126105ab57915191906120ca61290b565b3d9150612932565b506020823d8211612985575b8161297460209383611102565b810103126105ab57602491516128c9565b3d9150612967565b925094925050670de0b6b3a7640000810290808204670de0b6b3a76400001490151715610b8c576020600492604051938480926318160ddd60e01b82525afa908115610b81575f91612a11575b6129e492506111fa565b670de0b6b3a7640000820291808304670de0b6b3a76400001490151715610b8c57612a0e916111fa565b90565b90506020823d602011612a3f575b81612a2c60209383611102565b810103126105ab576129e49151906129da565b3d9150612a1f565b612a5b91503d805f833e610ddb8183611102565b5f61286c565b90506020813d602011612a8b575b81612a7c60209383611102565b810103126105ab57515f61283b565b3d9150612a6f565b90612a9d82611218565b612aaa6040519182611102565b8281528092612abb601f1991611218565b0190602036910137565b81810392915f138015828513169184121617610b8c57565b60405163095ea7b360e01b60208083019182526001600160a01b0385166024840152604480840196909652948252929390925f90612b1c606486611102565b84519082855af15f513d82612b7d575b505015612b3857505050565b60405163095ea7b360e01b60208201526001600160a01b0390931660248401525f604480850191909152835261115b926109e690612b77606482611102565b82612ba2565b909150612b9a57506001600160a01b0381163b15155b5f80612b2c565b600114612b93565b905f602091828151910182855af115610b81575f513d612bf157506001600160a01b0381163b155b612bd15750565b635274afe760e01b5f9081526001600160a01b0391909116600452602490fd5b60011415612bca565b604d8111610b8c57600a0a90565b90612c138251612a93565b915f90612c208151612a93565b612c2a8251612a93565b91612c358151612a93565b5f8054600154919892966001600160a01b039283169391909216915b84518a1015612e3157602460206001600160a01b03612c708d89611278565b515116604051928380926370a0823160e01b82528860048301525afa908115610b81575f91612e00575b50612ca58b88611278565b526001600160a01b03612cb88b87611278565b515160405163b3596f0760e01b815291166004820152602081602481885afa908115610b81575f91612dcf575b50612cf08b89611278565b52600460206001600160a01b03612d078d89611278565b5151166040519283809263313ce56760e01b82525afa908115610b815788888b938e935f91612d86575b50612d7284612d6c6120ca95612d6583612d5e60019c9a612d7e9c9960ff612d789a166120be838d611278565b5192611278565b51906111e7565b93611278565b51612bfa565b906111fa565b990198612c51565b9450505050506020813d8211612dc7575b81612da460209383611102565b810103126105ab575160ff811681036105ab5788908b9089908990612d72612d31565b3d9150612d97565b90506020813d8211612df8575b81612de960209383611102565b810103126105ab57515f612ce5565b3d9150612ddc565b90506020813d8211612e29575b81612e1a60209383611102565b810103126105ab57515f612c9a565b3d9150612e0d565b985095949392969150505f5b8651811015612ebd57612e6e612e61612e568386611278565b51612d658488611278565b612d78612d728489611278565b908815612eb357670de0b6b3a7640000820291808304670de0b6b3a76400001490151715610b8c57612ea2896001936111fa565b612eac8289611278565b5201612e3d565b600191505f612ea2565b509450505050915056fea264697066735822122084c7eec836508448889fb45cbcda7c914175d413786a00167b97b625e28c2aa064736f6c634300081c0033",
    "sourcePath": "/home/ilau/projectWork/mipt/index/src/contracts/IndexManager.sol",
    "compiler": {
        "name": "solc",
        "version": "0.8.28+commit.7893614a"
    },
    "functionHashes": {
        "FEE_DENOMINATOR()": "d73792a9",
        "FEE_PERIOD()": "4b79bc06",
        "INDEX_ADMIN_ROLE()": "29a0356b",
        "PRICE_ORACLE_DECIMALS()": "e4d1d2eb",
        "TOKEN_INDEX_DECIMALS()": "59c4a587",
        "aclManager()": "40298ed7",
        "approveToken(address,address)": "03105b04",
        "baseToken()": "c55dae63",
        "deposit(uint256,address)": "6e553f65",
        "feePercentage()": "a001ecdd",
        "lastFeeWithdrawal()": "8414efe5",
        "priceOracle()": "2630c12f",
        "rebalance((uint256,uint256,bytes,uint256)[])": "8dbc2892",
        "revokeTokenApproval(address,address)": "91879a51",
        "setTokenPath(address,address,bytes)": "e47730fe",
        "swapRouter()": "c31c9c07",
        "tokenIndex()": "d55f9273",
        "tokenPaths(address,address)": "046d81db",
        "withdraw(uint256,address)": "00f714ce",
        "withdrawFees()": "476343ee"
    },
    "gasEstimates": {
        "creation": {
            "codeDepositCost": "2405800",
            "executionCost": "infinite",
            "totalCost": "infinite"
        },
        "external": {
            "FEE_DENOMINATOR()": "524",
            "FEE_PERIOD()": "301",
            "INDEX_ADMIN_ROLE()": "infinite",
            "PRICE_ORACLE_DECIMALS()": "563",
            "TOKEN_INDEX_DECIMALS()": "infinite",
            "aclManager()": "2384",
            "approveToken(address,address)": "infinite",
            "baseToken()": "2607",
            "deposit(uint256,address)": "infinite",
            "feePercentage()": "2539",
            "lastFeeWithdrawal()": "2473",
            "priceOracle()": "2340",
            "rebalance((uint256,uint256,bytes,uint256)[])": "infinite",
            "revokeTokenApproval(address,address)": "infinite",
            "setTokenPath(address,address,bytes)": "infinite",
            "swapRouter()": "2585",
            "tokenIndex()": "2626",
            "tokenPaths(address,address)": "infinite",
            "withdraw(uint256,address)": "infinite",
            "withdrawFees()": "infinite"
        },
        "internal": {
            "calculateBurnAmount(uint256)": "infinite",
            "calculateMintAmount(uint256)": "infinite",
            "calculateRequiredSwaps(uint256)": "infinite",
            "calculateRequiredSwapsForSurplusTokens(uint256)": "infinite",
            "findDeficitTokens(struct ITokenIndex.TokenInfo memory[] memory)": "infinite",
            "findSurplusTokens(struct ITokenIndex.TokenInfo memory[] memory)": "infinite",
            "getCurrentIndexTokenPrice()": "infinite",
            "getCurrentProportions(struct ITokenIndex.TokenInfo memory[] memory)": "infinite",
            "swapTokens(address,address,uint256,address)": "infinite"
        }
    }
}